:100000000C9438000C94D6000C9455000C945500B8
:100010000C9455000C9455000C945D000C94550004
:100020000C9455000C9455000C9455000C945500FC
:100030000C9455000C9455000C9455000C945500EC
:100040000C9455000C9455000C9455000C945500DC
:100050000C9455000C9455000C9455000C945500CC
:100060000C9455000C9455000C9455000C945500BC
:1000700011241FBECFEFD0E1DEBFCDBF11E0A0E065
:10008000B1E0E0EDF4E002C005900D92A030B107C0
:10009000D9F714E0A0E0B1E001C01D92A63FB1077E
:1000A000E1F70E94B0010C9467020C9400001092DA
:1000B0006D001DBA1092F40408951F920F920FB6AE
:1000C0000F9211242F933F934F935F936F937F93DE
:1000D0008F939F93AF93BF93EF93FF938091D4033C
:1000E000992787FD909582309105B1F08330910575
:1000F0001CF4019721F048C0039779F145C0109294
:10010000000110920101109202011092030184E09B
:1001100080936D0082E01EC081E08DBB1092D503FC
:100120001092D6031092D7031092D8038091000149
:1001300090910101A0910201B09103010196A11DCE
:10014000B11D8093000190930101A0930201B0932F
:10015000030183E08093D40317C01DBA809100018E
:1001600090910101A0910201B0910301845291404C
:10017000A040B04024F482E08093D40302C00E94E7
:10018000570082E08093F5041BBAFF91EF91BF9175
:10019000AF919F918F917F916F915F914F913F911F
:1001A0002F910F900FBE0F901F9018951F920F92D6
:1001B0000FB60F9211248F939F93AF93BF93EF933A
:1001C000FF938091D5039091D603A091D703B0916E
:1001D000D803FC01EC5FFE4F80B180838091D50392
:1001E0009091D603A091D703B091D8030196A11D99
:1001F000B11D8093D5039093D603A093D703B093FA
:10020000D8031CBAFF91EF91BF91AF919F918F914D
:100210000F900FBE0F901F9018951F93182F80EC12
:100220000E94E401812F0E943D020E94350281EC70
:100230000E94E4010E945C02182F0E943502812F67
:1002400099271F9108950F931F93182F062F80EC65
:100250000E94E401812F0E943D02802F0E943D02F6
:100260000E94350280E090E01F910F91089508955B
:10027000089588E080936D0081E08093D40380939B
:10028000F40408950F931F9380E593EC0197F1F721
:1002900060E882E10E94230100E117E2C8010197B2
:1002A000F1F76CE282E10E942301C8010197F1F7A6
:1002B00060E888E20E942301C8010197F1F761E13B
:1002C00083E10E942301C8010197F1F760E281E117
:1002D0000E942301C8010197F1F71F910F91089522
:1002E0002091D5033091D6034091D7035091D80384
:1002F000121613061406150684F4DA01C901213F0B
:1003000031054105510524F080EF90E0A0E0B0E018
:10031000281B310941095109EBCF089510920001C2
:100320001092010110920201109203011092D50364
:100330001092D6031092D7031092D80311B8529A94
:1003400087B18C6087B98AB1806F8AB987B1806FB5
:1003500087B90E94DE0138983998409A419A0895E9
:10036000CFEFD0E1DEBFCDBF0E948E0128EE33E09B
:1003700084EF91E00197F1F721503040C9F70E94D6
:10038000420128EE33E084EF91E00197F1F721502C
:100390003040C9F778948091F50499278130910510
:1003A00019F0029741F0F7CF8091F404882399F770
:1003B0000E943901F0CF0E947001EDCF1092B90078
:1003C0008CE58093B8000895982F84EA8093BC0050
:1003D0008091BC008823E4F78091B900887F883041
:1003E00011F0803181F49093BB0084E88093BC00CD
:1003F0008091BC008823E4F78091B900887F883120
:1004000029F0803419F081E090E0089580E090E0D8
:100410000895982F44EA34E824E94093BC00809181
:10042000BC008823E4F78091B900887F883011F000
:10043000803199F79093BB003093BC008091BC0051
:100440008823E4F78091B900887F803211F08835E5
:1004500039F42093BC008091BC0084FDFCCFDDCF3B
:1004600008950E94E4019927089584E98093BC00CF
:100470008091BC0084FDFCCF08958093BB0084E88C
:100480008093BC008091BC008823E4F78091B90080
:10049000887F883219F081E090E0089580E090E054
:1004A000089584EC8093BC008091BC008823E4F71D
:1004B0008091BB009927089584E88093BC008091C7
:1004C000BC008823E4F78091BB0099270895FFCFF3
:00000001FF
